:020000040800F2
:10000000D89601200D020008F9350008912E00084D
:10001000F7350008630500082D51000800000000B6
:10002000000000000000000000000000EB380008A5
:100030003D0700080000000077370008F738000887
:1000400027020008270200082702000827020008EC
:1000500027020008270200082702000827020008DC
:1000600027020008270200082702000827020008CC
:1000700027020008270200082702000827020008BC
:10008000270200082702000895030008270200083D
:10009000270200082702000827020008270200089C
:1000A000270200082702000827020008270200088C
:1000B000270200082702000827020008270200087C
:1000C000270200082702000827020008270200086C
:1000D000270200082702000827020008270200085C
:1000E000270200082702000827020008270200084C
:1000F000270200082702000827020008270200083C
:10010000270200082702000827020008270200082B
:10011000270200082702000827020008270200081B
:100120008D060008270200082702000827020008A1
:1001300027020008270200082702000827020008FB
:10014000270200082702000827020008FD350008E2
:1001500027020008270200082702000827020008DB
:1001600027020008270200082702000827020008CB
:1001700027020008270200082702000800000000EC
:1001800027020008270200082702000827020008AB
:10019000270200082702000827020008270200089B
:1001A000270200082702000827020008270200088B
:1001B000270200082702000827020008270200087B
:1001C000270200082702000800000000270200089C
:1001D000270200082702000827020008270200085B
:1001E000270200082702000827020008270200084B
:1001F0002702000827020008DFF80CD000F08CF876
:100200000048004791520008D896012006488047D0
:1002100006480047FEE7FEE7FEE7FEE7FEE7FEE7EB
:10022000FEE7FEE7FEE7FEE79D390008F90100085A
:100230002DE9F05F0546002092469B46884606461B
:10024000814640241BE0284641464746224600F0AE
:1002500053F853465A46C01A914110D311461846D6
:10026000224600F03AF82D1A67EB01084F46224665
:100270000120002100F031F817EB00094E41201E4B
:10028000A4F10104DFDC484631462A464346BDE876
:10029000F09F40EA01039B0703D009E008C9121F41
:1002A00008C0042AFAD203E011F8013B00F8013B30
:1002B000521EF9D27047D2B201E000F8012B491E5C
:1002C000FBD270470022F6E710B513460A460446F3
:1002D0001946FFF7F0FF204610BD202A04DB203A24
:1002E00000FA02F1002070479140C2F1200320FA89
:1002F00003F3194390407047202A04DB203A21FA87
:1003000002F00021704721FA02F3D040C2F120022E
:100310009140084319467047064C074D06E0E068D7
:1003200040F0010394E8070098471034AC42F6D33C
:10033000FFF766FF6C5300088C53000870B58C18EB
:1003400010F8015B15F0070301D110F8013B2A11E9
:1003500006D110F8012B03E010F8016B01F8016BD6
:100360005B1EF9D12B0705D40023521E0DD401F8D2
:10037000013BFAE710F8013BCB1A921C03E013F89B
:10038000015B01F8015B521EF9D5A142D8D30020D0
:1003900070BD0000054810B500F0C0FB044800F037
:1003A000BDFBBDE81040034800F0B8BB683C00202E
:1003B000B03C0020F83C00204A496FF0706210B554
:1003C000D1F8043323F44033C1F80433D1F80433B3
:1003D00044682343C1F8043301684B6823F48073F5
:1003E0004B60016803694C6844EA03234B60016871
:1003F0004B6823F040734B60016884684B6823436B
:100400004B6001688B6823F400638B600168C468EB
:100410008B6823438B60816AD14201688A6822F02D
:1004200070628A6001680DD0836A8A681A438A60A4
:1004300001688A6822F040528A600168C36A8A684B
:100440001A4302E08A6822F040528A6001688A6892
:1004500022F002028A60016882698B6843EA4202E4
:100460008A6090F820100029016811D01E4A4B685C
:1004700043F400634B6001684B6823F460434B60B6
:100480000168446A4B6802EB443213434B6003E05B
:100490004A6822F400624A600168144BCA6A22F476
:1004A0007002CA620168848BCA6A03EB04531A4360
:1004B000CA6201688A6822F400728A60016890F852
:1004C00030208B6843EA42228A6001688A6822F4FD
:1004D00080628A60016840698A6842EA8020886098
:1004E00010BD00000020014000E0FFFF0000F0FF11
:1004F0000146806B026C12F0500F03D0806BC26C0F
:1005000008461047016C41F40071016401688A6873
:1005100012F0405F17D18269AAB9CA6A12F4700F4B
:1005200002D08A6852050ED44A6822F020024A603E
:10053000016C21F480710164016CC90403D4016C65
:1005400041F00101016400F08DBA806B402101642B
:10055000416C41F00401416400F0DFBA806B00F0AF
:10056000DBBAFEE7002070470020704705490022F3
:10057000054810B503F026FB0449034803F01CFBB3
:10058000002010BDD84E0020043E0020D846002098
:10059000204A002170B5445C4B1C5454D9B2042944
:1005A000F9D31C490422091D081F04F003FE00288A
:1005B0002ED004F00FFE0122174D94032846214649
:1005C00000F0F0FE00224FF6E850521C92B2824238
:1005D000FBD300222146284600F0E4FE0F4800F03D
:1005E000EDFB0F4800F0EAFB40F6C4140D490E483D
:1005F000224600F0E3F8094800F0E0FB084800F06C
:10060000DDFB22460749BDE87040074800F0D6B838
:1006100070BD00000100002000140240F83C0020E2
:10062000B03C0020B8010020683C002070B50D46A9
:1006300004460146054803F0BFFA044803F0A1FA56
:1006400029682046FFF7A4FF002070BD043E00206B
:1006500010B5096800F018F8002010BD094A10B55F
:10066000D2F8BC22D2F814220AB1012010BD0A46E9
:100670000146044803F0A6FABDE81040014803F023
:1006800002BB0000043E002070470000014800F05B
:1006900005BC0000403D002001681823CAB2103A92
:1006A000B2FBF3F2054B6FF30901032A9B5CC365B0
:1006B00000D9091D816508467047000054530008A1
:1006C00010B583694FF0C074826A0146002053B1AF
:1006D000B3F5005F15D072B1012A0CD0022A0AD0FE
:1006E000032A09D104E01AB1012A06D0022A03D153
:1006F000C96AC90100D5012010BDC96AA142FAD05A
:1007000010BD002AF7D0012AF2D0022AF3D0032A22
:10071000F3D010BD30B50468256825F48025256028
:10072000046863608368402B036803D099600068A5
:10073000C26030BD9A600068C16030BD70477047CC
:100740007047000030B590F83C20012A2BD0174AA2
:10075000012300F83C3F0023D2F8044324F01F0497
:10076000C2F80443D2F804430D682C43C2F8044392
:10077000D2F8044324F44044C2F80443D2F80443BA
:100780004D682C43C2F80443D2F8044324F4706447
:10079000C2F80443D2F8044389680C43C2F8044306
:1007A0000370002030BD022030BD00000020014059
:1007B0000148D0F80803704700200140F8B51346FF
:1007C00004460022009290F83C00012807D0012046
:1007D00084F83C0020688568ED0702D011E0022013
:1007E000F8BD86682E4D46F0010686602D480068EB
:1007F000B0FBF5F000EB400000E0401E0090002848
:10080000FBD120688568ED0748D0256C40F2016671
:10081000B54345F4807525644068400505D5206CD6
:1008200020F4005040F480502064206CC00404D5B3
:10083000606C20F00600606400E062646FF0020506
:1008400084F83C20A66B194A1748F263A66B184A35
:100850003264A66B174AF2642268156022685568F4
:1008600045F08065556094F83020002AD0F80423C4
:1008700002D042F4005201E022F40052C0F80423F6
:10088000A06B0A460C4900F04BFC2068816811F00F
:10089000405F03D1816841F0804181600020F8BD54
:1008A00040420F009400002000200140F1040008A5
:1008B0005D0500084B05000808230140F8B5002538
:1008C000009590F83C20012A1DD0012280F83C20A0
:1008D000604C0723D6070A68092A22D9B24220D0E1
:1008E00007680A3A02EB420CFA6803FA0CF39A43DF
:1008F000FA600A68A24208D102680B7AD76847EA10
:100900000363D36022E00220F8BD07680A3A8B68CF
:1009100002EB4202D7F80CC0934043EA0C03FB60A1
:1009200014E0076802EB4202D7F810C093402CEAAB
:10093000030CC7F810C003680F788A68D3F810C09A
:1009400007EB4707BA4042EA0C021A614A681F23C4
:10095000072A16D20768521E02EB820C7A6B03FA42
:100960000CF39A437A6302680F790B887F1ED2F8E2
:1009700034C09BB207EB8707BB4043EA0C035363C9
:100980002DE007680D2A15D2D21F02EB820C3A6BBC
:1009900003FA0CF39A433A6302680F790B88FF1F3E
:1009A000D2F830C09BB207EB8707BB4043EA0C0389
:1009B000136314E00D3A02EB820CFA6A03FA0CF3AB
:1009C0009A43FA6202680F790B880D3FD2F82CC067
:1009D0009BB207EB8707BB4043EA0C03D3621E4A76
:1009E0000368934208D10B68B34205D1D2F80433AF
:1009F00023F44003C2F804330368934208D10B6820
:100A0000122B05D1D2F8043343F48003C2F8043327
:100A1000036893421AD10B68A34201D0112B15D160
:100A2000D2F8043343F40003C2F804330968A14246
:100A30000CD10A490A4A0968B1FBF2F101EB8101C4
:100A4000490000E0491E00910029FBD180F83C508C
:100A50000020F8BD1200001000200140940000208A
:100A600040420F002DE9F0412249234802F0D8FC12
:100A7000204C9FED221A103C2070D4ED030A94ED17
:100A8000040A02F007FC84ED030A04F10C001A4C7E
:100A9000083C01782170417861708178A170C0783C
:100AA000E07004F0B1FB164800F088F9154800F03A
:100AB00085F91548FFF77CFE20710021134840F6A8
:100AC000C415134C4B1C00EB410654F8212000F8D0
:100AD000112099B2170C7770A942F3D30B4841F259
:100AE0008D31FFF7BBFDBDE8F0410A48012100F060
:100AF00053BC000010000020583C0020CDCCCC3D61
:100B0000F83C0020B03C0020683C0020C8280020B1
:100B1000B8010020000402407047704770B50446D9
:100B2000006801684268C1F34001C2F3401251B34A
:100B30004AB3216CC90603D4216C41F400712164CD
:100B4000816811F0405F17D1A169A9B9C16A11F498
:100B5000700F02D0816849050ED4416821F0200150
:100B60004160206C20F480702064206CC00403D4A9
:100B7000206C40F0010020642046FFF773FF2168DD
:100B80006FF012000860206801684268C1F38001BC
:100B9000C2F3C01289B382B3216CC90603D4216C9D
:100BA00041F400512164816811F4401F1ED1816B12
:100BB00011F4401F02D08168490517D441684905E6
:100BC00014D4816811F0405F10D1A16971B94168F6
:100BD00021F080014160206C20F480502064206C62
:100BE000C00503D4206C40F0010020642046FFF7CC
:100BF000A7FD21686FF00C00086020680168436859
:100C000011F0010FC3F380110ED069B10068C00765
:100C10000AD0206C40F480302064204600F046F872
:100C200021686FF001000860206801684268C1F324
:100C300040110029C2F380620DD0002A0BD0616CF4
:100C40006FF0200541F00201616405602046FFF766
:100C500064FF2068056070BD70B504004FF00005AA
:100C600003D0206C002610B107E0012070BD2046A3
:100C700000F01EF8666484F83C60206CC00610D456
:100C8000206C20F4885040F0020020642046FFF7DA
:100C900093FB6664206C20F0020040F001002064A9
:100CA00000E0012584F83C60284670BD70470000D4
:100CB000F0B587B0074614216846FFF703FB3848B4
:100CC0000025DFF8E0C009233C68143834490326C6
:100CD000354A644533D10C6844F480740C6009686B
:100CE00001F480710591016841F001010160006823
:100CF0006946029500F001000590CDE900361046E6
:100D000000F05EFA294C2A4B04F1140C1815C4E9C2
:100D10000035A560810002010423C4E903508CE87A
:100D20002600C4E90853C4E90A652046256300F09B
:100D300085F908B1FFF703FDBC63A7630AE01D4F07
:100D4000BC4211D10C6844F400740C60096801F4D1
:100D5000007113E000221220114600F089FB1220DE
:100D600000F078FB07B0F0BD134FBC42FAD10C681D
:100D700044F480640C60096801F4806105910168A5
:100D800041F00101016000686946029500F0010030
:100D90000590CDE90036104600F012FADAE70000BF
:100DA000443802400020014000000240403D002045
:100DB00010640240002101400022014018B50022C9
:100DC000009290F83C10012907D0012180F83C10D6
:100DD00001688B68DB0702D011E0022018BD8C6827
:100DE0002A4B44F001048C6029490968B1FBF3F1F6
:100DF00001EB410100E0491E00910029FBD103688D
:100E00009968C90740D0016C40F20164A14341F4E4
:100E1000807101645968490505D5016C21F40051C0
:100E200041F480510164016CC90404D5416C21F086
:100E30000601416400E042646FF02204154980F825
:100E40003C201C60D1F80423D20607D002688A42F5
:100E50000AD1936813F0405F02D005E000680BE010
:100E6000936843F080439360D1F80413C9060BD410
:100E700000680949884207D1816811F0405F03D1B9
:100E8000816841F080418160002018BD40420F0020
:100E90009400002000200140002201402DE9F84389
:100EA00004464FF00009644B0820CDF800904FF441
:100EB0001652A56D94F85C101B682E68B3FBF2F710
:100EC00000FA01F131420FD021680A6852070BD5B0
:100ED0000A6822F004020A6094F85C108840A86056
:100EE000606D40F00100606594F85C104FF00108FF
:100EF00008FA01F0304208D021684969090604D592
:100F0000A860606D40F00200606594F85C100420F9
:100F10008840304208D021680968890704D5A86054
:100F2000606D40F00400606594F85C10102088400B
:100F3000304218D021680968090714D5A8602068D4
:100F40000168490304D50068000308D5A16C07E0D7
:100F50000168C90503D4016821F008010160216C12
:100F600009B12046884794F85C1020208840304220
:100F700031D021680968C9062DD5A86094F83500DC
:100F800005282068016806D0490347D5006800039A
:100F90001DD4616C1CE021F01601016020684169DC
:100FA00021F080014161206C08B9A06C20B120685B
:100FB000016821F00801016094F85C303F229A40FA
:100FC000AA6084F8349084F83580216D1FE0E16BCD
:100FD00009B120468847606D00282BD0606DC0079E
:100FE00014D0052084F835002068016821F0010143
:100FF00001600098401C0090B84203D82068006847
:10100000C007F6D184F8349084F83580E16C00296B
:1010100010D001B02046BDE8F04308470168C9057B
:10102000D5D4036823F01003036084F8349084F867
:101030003580CCE7BDE8F883940000202DE9F04727
:10104000044600F0B5F9054664B14FF0000984F894
:101050003490022184F835102068016821F00101E4
:1010600001600EE00120BDE8F08700BF00F0A0F9AC
:10107000401B052805D920216165032084F835002F
:10108000F1E720680068C007F0D1D4E90020D4E976
:101090000251D4E9043C284304F1180519430843DC
:1010A000116895E8E00140EA0C001C4B2843194008
:1010B00040EA060040EA0700B8F1040F40EA0100E8
:1010C00003D1D4E90B1319430843106020680126AB
:1010D000656A4069042D20F0070045EA00050CD13F
:1010E000D4E90A01054341B12046FFF7E9FA20B1EE
:1010F0004020606584F83560B4E72068456120468B
:10110000FFF7CAFA94F85C303F229A408260C4F834
:10111000549084F835600020A5E700003F8010E07F
:101120002DE9F041044690F8340000250128A66D11
:101130000ED094F835C00127002084F83470BCF13B
:10114000010F07D0022584F834002846BDE8F0815D
:101150000220FBE7022784F8357060652046FFF720
:10116000D9FA94F85C103F208840B060206801688C
:1011700041F0160101602068416941F08001416140
:10118000206C20B12068016841F0080101602068EE
:10119000016841F001010160D7E7000070B5044625
:1011A00000F006F90546601C02D0044800780444AB
:1011B00000F0FEF8401BA042FAD370BD880000206A
:1011C0002DE9F84F00224FF001094FF0030A4FF0CC
:1011D0000F0E00BF0B6809FA02F42340A34270D13E
:1011E0004D68012D05D0022D03D0112D01D0122DF7
:1011F00011D185685700CE680AFA07FC25EA0C056C
:10120000BE402E43866045680E79A543C6F300169E
:1012100096402E434660C56856008F680AFA06F469
:10122000A543B7402F43C7604D68022D01D0122D52
:1012300012D1D5080F694FEA427C00EB8505AB4619
:101240002D6A4FEADC6C0EFA0CF807FA0CF725EA67
:1012500008052F43CBF820700D79076805F00305CA
:10126000A743B5403D4305604C68E40074D53D4C50
:10127000256845F480452560246822F00307960719
:1012800004F480440094384C360F2744D7F80848BB
:10129000DFF8D8C00EFA06F5604524EA050401D14E
:1012A00000252EE0324DA84201D1012529E0314D23
:1012B000A84201D1022524E02F4DA84202D10325E6
:1012C0001FE049E02D4DA84201D1042519E02C4D25
:1012D000A84201D1052514E02A4DA84201D10625D6
:1012E0000FE0294DA84201D107250AE0274DA84269
:1012F00001D1082505E0264DA84201D1092500E0CD
:101300000A25B540234E2543C7F808584D68346870
:10131000ED0324EA030400D51C431E4D34602D1D4B
:101320004E682C68B60324EA030400D51C43194E0A
:101330002C6008364D683468ED0224EA030400D5B9
:101340001C43144D34600C354E682C68B60224EAF8
:10135000030400D51C432C60521C102AFFF43AAF42
:10136000BDE8F88F443802400030014000000240E0
:101370000004024000080240000C0240001002403D
:101380000014024000180240001C024000200240ED
:1013900000240240003C014042690A4200D0090496
:1013A000816170470AB1816170470904FBE7000061
:1013B000014880687047000088000020024881686A
:1013C000027811448160704788000020032010B526
:1013D00000F06EF8002000F005F800F023F800207F
:1013E00010BD000070B50D4D04464FF47A700C4AE4
:1013F00029781268B0FBF1F0B2FBF0F001F035FD96
:1014000048B9102C07D200222146501E00F030F8B7
:1014100000206C6070BD012070BD000088000020BD
:10142000940000200A4808B5016841F0805101602D
:10143000006800F0805000900548001D016841F4EC
:1014400080410160006800F48040009008BD000009
:1014500040380240002809DB410900F01F028900E2
:10146000012001F1E0219040C1F800017047000027
:101470000E4BF0B41B680D46C3F30223C3F10706FD
:10148000042E00D90426191D072901D2002300E0EB
:10149000DB1E012404FA06F19C40491E2940641E0B
:1014A000994014402143F0BC03F041BE0CED00E034
:1014B000064900F0070210B54FF6FF040868044B18
:1014C000204040EA02201843086010BD0CED00E007
:1014D0000000FA0501680123C0F8FC33002280F8FF
:1014E000F4238869044A40F000608861486D104325
:1014F00048650020704700000300001070B5164DCD
:101500000446A1B1012911D12068D0F8001E41F094
:101510000101C0F8001ED4F8000402F0FFFE206AAA
:10152000002803D0286840F00600286070BD206ABB
:1015300028B102F0E3F9286820F00600286020684E
:10154000D0F8001E21F00101C0F8001ED4F80004FC
:10155000BDE8704002F080BE10ED00E0006841621E
:1015600000207047F0B503685D6A39B19F6A4C1E70
:1015700000204FF4827605EB17450BE045EA024068
:10158000986210E0471C06EB800053F800C0F8B2E8
:1015900005EB1C45A042F5D34FF4807000EB8100B1
:1015A00045EA02421A500020F0BDD0F8000402F0D3
:1015B000BDBDC1EBC10200EB8202D0F80004926C09
:1015C00002F028BDC1EBC10200EB8202D0F800049A
:1015D000D2F8082202F073BDD0F8000402F0A8BDD2
:1015E00001F00F020B0670B5C2EBC20104464FF0CA
:1015F00001004FF0000504EB810103D581F83D00A7
:101600003C3103E081F8FD5101F5FE710A7094F858
:10161000BC23012A08D084F8BC03206803F01CF91D
:10162000002084F8BC5370BD022070BD70B54268C4
:10163000044601F00F00904201D9012070BD01F075
:101640000F024FF000050B06C2EBC2014FF0010282
:1016500004EB810103D581F83D203C3103E081F8A2
:10166000FD5101F5FE718D70087094F8BC030128DE
:1016700008D084F8BC23206803F0EAFA002084F83C
:10168000BC5370BD022070BD01F00F01C1EBC10160
:1016900000EB8100D0F8140270472DE9F04101F011
:1016A0000F0604460D064FF00100C6EBC6014FF0D1
:1016B000000504EB810103D581F83D003C3103E0D6
:1016C00081F8FD5101F5FE714F788A60CB700E7084
:1016D00007B1CE80022B00D10D7194F8BC23012AF2
:1016E00009D084F8BC03206803F016F8284684F873
:1016F000BC53BDE8F0810220FBE770B501F00F0597
:101700000C460026C5EBC50100EB8101C1F808229B
:10171000C1E9843681F8FD6181F8FC5101F5FE7163
:101720000369012B00D10A612207027C006803D003
:1017300003F0E6FA002070BD03F0D0F9FAE770B5C7
:101740000D464168044605F00F00884201D901208A
:1017500070BD29064FF000064FF0010207D5C0EB1F
:10176000C00104EB810181F83D203C3107E0C5EB6D
:10177000C50104EB810181F8FD6101F5FE718A70FC
:10178000087094F8BC03012807D084F8BC232068B3
:1017900003F08AFA280702D007E0022070BD217CFE
:1017A00004F57172206803F027FA002084F8BC6306
:1017B00070BD2DE9F04101F00F050C460026C5EB88
:1017C000C501012700EB81018A64C1E9143681F863
:1017D0003D7001F83C5F0369012B00D10A612207CB
:1017E000027C006804D003F08BFA0020BDE8F08191
:1017F00003F074F9F9E700002DE9FC5F0568044681
:10180000284603F0A6FB00287ED1206803F0CDFB1C
:10181000002879D0206803F0C8FB800704D5206831
:10182000416901F002014161206803F0BEFBC1067D
:1018300004F57170009034D52068816921F01001A1
:1018400081612F6A07F00F01C7F34340C1EBC1016B
:10185000022804EB810606F5FE7602D0062811D098
:101860001AE047F6F070074216D0C7F30A12F16883
:101870001746284603F09DFBF168B0693944F160D2
:10188000384408E000990822284603F092FBB0692A
:10189000C7F30A110844B0612068816941F0100162
:1018A0008161206803F081FB00034FF001094FF0D4
:1018B000080B5BD52068002603F056FBDFF8A8A3D1
:1018C000074651E0F8074DD02068F1B203F065FB00
:1018D0008046C00707D005EB4611C1F8089B31468A
:1018E000204601F091FE5FEA087022D505EB461113
:1018F000C1F808BB2068016C00EB4610019151450E
:10190000D0F8081B07D900E0ABE1090403D54FF478
:101910000041C0F8081B204600F0AAFA0198504583
:1019200007D92069012804D120680121009A03F019
:1019300063F95FEAC86004D505EB46111020C1F8D1
:10194000080B5FEA886004D505EB46102021C0F83B
:10195000081B5FEA884005D505EB46114FF400509F
:10196000C1F8080B7F08761C002FABD1206803F06C
:101970001CFB40034FF0000A5CD5206803F0EDFA31
:101980000026074654E0F80750D02068F1B203F073
:10199000F2FA8046C00723D0D5F8342806F00F0CA1
:1019A00005EB461309FA0CF08243C5F83428C3F856
:1019B0000899206901280FD1C6EBC60004EB80000E
:1019C000D0E911121144816436B9206D20B9206824
:1019D0000121009A03F010F92046F1B2FFF7E9FD6A
:1019E0005FEA087003D505EB4611C1F808B95FEA54
:1019F000C86004D505EB46111020C1F808095FEA5C
:101A0000486004D505EB46114020C1F808095FEA9B
:101A1000887004D505EB46110220C1F808095FEA79
:101A2000086003D53146204601F054FE7F08761C3D
:101A3000002FA8D1206803F0B8FA002811DAD5F8F1
:101A4000040820F00100C5F8040894F8F403012804
:101A500039D0204600F0F0F92068416901F00041DA
:101A60004161206803F0A1FA00050BD5D5F80808FC
:101A7000C00702D0204600F017FA2068416901F43F
:101A800000614161206803F090FA00010AD52068E6
:101A9000416901F00061416194F8F403D0B120463E
:101AA00000F002FA206803F080FAC00476D5D5F879
:101AB000040820F00100C5F804082068102103F094
:101AC00029FA002135E00021204684F8F4A3FFF72D
:101AD00015FDC1E784F8F4932068406D0121C0F33F
:101AE0008300C4F8F8032046FFF708FDDAE700BFDB
:101AF00005EB41104FF67F32C0F80829D0F80039C5
:101B000023F40013C0F80039D0F8003943F0006323
:101B1000C0F80039C0F8082BD0F8002B22F40012CE
:101B2000C0F8002BD0F8002B42F00062C0F8002B68
:101B3000491C60688842DBD8D5F81C0840F00110C9
:101B4000C5F81C08206B60B1D5F8840840F00B0084
:101B5000C5F88408D5F8440840F00B00C5F84408DF
:101B60000CE0D5F8140842F22B010843C5F814081C
:101B7000D5F8100840F00B00C5F81008D5F800089B
:101B800020F4FE60C5F80008217C2068009A03F06C
:101B900033F82068416901F480514161206803F005
:101BA00004FA800417D5206802F0F6FD206803F0DF
:101BB000C3F9E06000F0C6FC0146207B2368C2B296
:101BC000184603F02DFA204600F020F920684169FC
:101BD00001F400514161206803F0E7F9000707D5DF
:101BE000204600F02DF92068416901F008014161AB
:101BF000206803F0DAF9C00208D50021204600F081
:101C000035F82068416901F480114161206803F0D2
:101C1000CCF9800208D50021204600F02BF820687E
:101C2000416901F400114161206803F0BEF94000F0
:101C300007D52046FFF7B9FC2068416901F08041D3
:101C40004161206803F0B1F940070AD52068456872
:101C5000680702D52046FFF7BFFC21684868284383
:101C60004860BDE8FC9F00000A30544FD0F80004E3
:101C700002F0B0BAD0F8000402F0AEBA2DE9F0419B
:101C800004008AB005D094F8BD030025266820B171
:101C900008E001200AB0BDE8F081204684F8BC537A
:101CA00000F066F8032084F8BD03F06BC00500D493
:101CB0002561206802F00CFF04F11001684628221B
:101CC0008846FEF7E6FA94E80F0002F073FD02275B
:101CD000D8BB2068002103F07AF90020012610E02B
:101CE000C0EBC001421C04EB810181F83D6081F82A
:101CF0003F504D648D640D6581F83C00A1F84200B1
:101D0000D0B261688142EBD8002011E0C0EBC00185
:101D1000421C04EB810181F8FD5181F8FF51C1F8AB
:101D20000452C1F80852C1F8105281F8FC01D0B237
:101D300061688142EAD8282241466846FEF7A9FA3E
:101D400094E80F0002F006FE10B184F8BD73A0E71E
:101D5000606A84F8385084F8BD63012802D12046B7
:101D6000FFF7B8FB206802F0E9FD002092E70000D1
:101D700030B587B0044614216846FEF7A3FA206800
:101D8000B0F1A04F3BD11F48016841F00101016053
:101D90000068002402211C4D00F0010005904FF462
:101DA000E8500A238DE8130003226946CDE9032396
:101DB0002846FFF705FA68156946CDE9000428466C
:101DC0000294FFF7FDF90F48001D016841F0800102
:101DD0000160006800F0800005900A481430016836
:101DE00041F48041016000680022114600F4804007
:101DF00005904320FFF73CFB4320FFF72BFB07B088
:101E000030BD0000303802400000024070B504468A
:101E1000C068012570B1022801D0FEF790FCD4F80B
:101E20000004294602F02EFAD4F80004BDE8704000
:101E300002F0E9B90025F2E7D0F8000402F00CBA8C
:101E4000D0F8000402F012BA10B5044690F8BC03B2
:101E500001280BD0012084F8381084F8BC032068D6
:101E600003F0CCF8002084F8BC0310BD022010BDA4
:101E7000D0F8002400F57171104602F00FBA10B5C9
:101E8000044690F8BC0301280CD0012084F8BC0360
:101E9000206802F047FD206803F026F8002084F84F
:101EA000BC0310BD022010BD10B50446D0F80004DC
:101EB00002F034FA2068D0F8001E41F00101C0F8A9
:101EC000001E206A002804D00248016841F0060183
:101ED000016010BD10ED00E02DE9F84F04460078D8
:101EE000DFF824944FF000063746C0070ED0D9F82B
:101EF000001021F40001C9F80010D9F80010626B3D
:101F00001143C9F80010606B00B90126FE4D20682E
:101F1000843500030ED5E16B286820F44010084397
:101F20002860E06BB0F5801F01D010B102E00126FF
:101F300000E0012720684FF4800BC0020CD5216C13
:101F4000286820F4400008432860206C584501D1DF
:101F5000012601E000B901272068C10100D5012652
:101F6000800666D5E8483830016841F0805101604C
:101F70000068DFF898A300F080500090DAF80010B5
:101F800041F48071CAF80010FFF712FA804605E0AC
:101F9000FFF70EFAA0EB080064287DD8DAF80000FD
:101FA000C005F5D5DFF8608308F16808D8F80000AF
:101FB00010F440702AD0218E01F44071814225D066
:101FC000D8F80010D8F8002021F4407142F4803293
:101FD000C8F80020D8F8002022F48032C8F8002089
:101FE000C8F80010D8F80000C0070FD0FFF7E0F9DC
:101FF000824607E0FFF7DCF9A0EB0A0141F28830E6
:102000008142CAD8D8F800008007F3D5206BC0F30E
:10201000012103297ED0D9F8001021F4F811C9F864
:102020000010228ED8F80010C2F30B021143C8F83A
:1020300000102078C00607D5286820F0807028603E
:102040002868A16B084328602188AF48883049047C
:1020500005D5626E016821F4403111430160218889
:10206000090405D5A26E016821F4402111430160E5
:102070002168C90305D5E26E016821F440111143BE
:1020800001602168890305D5226F016821F44001B0
:1020900011430160217800E034E1490605D5626C06
:1020A000016821F00301114301602178090605D57B
:1020B000A26C016821F00C01114301602188C9055F
:1020C00005D5E26C016821F03001114301602188DF
:1020D000890505D5226D016821F0C0011143016019
:1020E0002188490505D5626D016821F440711143CD
:1020F00001602188090505D5A26D016821F44061C0
:10210000114301602188C90407D5E26D016821F4FB
:10211000405100E05FE0114301602188890405D54A
:10212000226E016821F44041114301602168490297
:1021300005D5A26F016821F080611143016021681B
:102140004FF0006A890209D5E26F016821F0006151
:1021500011430160E16F514500D1012721680A0751
:1021600000D50127490305D5626F016821F0407150
:10217000114301602168090206D5D4F88020016866
:1021800021F08051114301602168490106D5D4F83E
:102190008420016821F00051114301602068000192
:1021A00006D5D4F88810286820F00070084328600D
:1021B0002068C00006D5D4F88C10286820F0806014
:1021C00008432860DFF84891012E0ED02068B0F156
:1021D000007F0AD08FE04F4AD9F80030104023F436
:1021E000F8120243C9F800201BE7D9F800004E4658
:1021F00020F08060C9F80000FFF7DAF8804605E0BB
:10220000FFF7D6F8A0EB080064287BD830680001FF
:10221000F6D421783C487C30C90712D0616B81B973
:10222000237A62680168D0F800C09201C1F30141CD
:1022300042EA0142CCF3036142EA016141EA0371DF
:10224000016021680A0303D5E26BB2F5801F04D058
:10225000C9021AD5216C594517D16368016894F8F1
:102260000CC002689B01C1F3014143EA0141C2F382
:10227000027241EA0C6141EA027101602968626AF6
:1022800021F01F01521E114329602168C90110D598
:10229000238A62680168D0F800C09201C1F303612B
:1022A00042EA034242EA0162CCF3027142EA01715E
:1022B0000160216889010CD56168228A237B94F82A
:1022C00008C0890141EA024141EA036141EA0C7117
:1022D00001603168B04641F080613160FFF768F815
:1022E000064604E0FFF764F8801B64280AD8D8F893
:1022F00000000001F6D5E7B3D9F800004E4620F003
:10230000805009E07BE00000083802400070004087
:1023100000380240FFFCFF0FC9F80000FFF748F843
:10232000074604E0FFF744F8C01B642867D830680C
:10233000C0438000F6D5216835480A0301D5E26B19
:102340001AB1C9021DD5216CD9B963690168277E0C
:1023500002689B01C1F3014143EA0143C2F30271E8
:1023600043EA076242EA0171016029686FF0FF03E6
:1023700000E04BE0A26A21F4F85103EB0222114382
:1023800029602168890212D5E16F51450FD1238C54
:102390006269016807689201C1F3036142EA03427E
:1023A00042EA0162C7F3027142EA017101602178D9
:1023B000090716D561690268D0F800C08B01277F34
:1023C000C2F30362CCF3014143EA014141EA0261F5
:1023D00041EA077101602868E16A20F4403008434F
:1023E0002860306840F080503060FEF7E1FF04461E
:1023F00008E000BFFEF7DCFF001B642802D90320C1
:10240000BDE8F88F3068C0438000F3D40020F7E7C0
:10241000883802402DE9F04705000F4663D0444E4E
:10242000306800F00F00B84209D2306820F00F0089
:1024300038433060306800F00F00B84253D128684C
:102440003C4C810712D5400703D5206840F4E0508A
:1024500020602878000703D5206840F460402060A1
:10246000A968206820F0F000084320602878C007A1
:102470002AD0304968680839012810D00968022834
:1024800010D0890700292EDA216821F003010143C9
:102490002160FEF78DFF804641F288390DE0096822
:1024A0008903EFE78901EDE7FEF782FFA0EB080162
:1024B000494502D90320BDE8F0876868216801F02A
:1024C0000C01B1EB800FEFD1306800F00F00B84283
:1024D0000BD9306820F00F0038433060306800F0CE
:1024E0000F00B84201D00120E5E72878400705D564
:1024F000E968206820F4E05008432060287800074D
:1025000006D52869216821F4604141EAC0002060B5
:1025100000F01EF82168084AC1F30311515CC8405D
:102520000649086006480068FEF75CFF0020C2E725
:10253000003C0240083802405C5300089400002030
:102540008C000020014800687047000094000020C3
:10255000154910B51548096811F00C0213D0411047
:10256000042A0FD0082A0ED10F4C241F226823689A
:1025700002F03F025B0207D52068C0F38810A0FB81
:10258000010106E0084610BD2168C1F38811A1FBD6
:1025900000010023FDF74CFE2168C1F30141491CF5
:1025A0004900B0FBF1F010BD083802400024F400EF
:1025B0002DE9F84F04004FF000076ED02078DFF8C7
:1025C0007CA3AAF10408C007A8F104054CD0DAF8EE
:1025D00000105046C1F38101012908D00068C0F302
:1025E000810002280AD1D8F80000400206D52868E8
:1025F000800339D560680028DFD035E06068B0F529
:10260000803F0BD010B1B0F5A02F11D0286820F476
:1026100080302860286820F4802002E0286840F498
:1026200080302860606890B1FEF7C2FE06460AE07E
:10263000286840F480202860F0E700BFFEF7B8FE6D
:10264000801B642872D828688003F7D50CE0FEF759
:10265000AFFE064605E000BFFEF7AAFE801B642819
:10266000F0D828688003F7D42078800742D5DAF8BC
:102670000010504611F00C0F08D00068C0F3810024
:1026800002280BD1D8F80000400207D42868800740
:1026900018D5E068012800D114E04AE1E06800287C
:1026A000286817D040F001002860FEF781FE06463A
:1026B00005E000BFFEF77CFE801B0228C2D8286818
:1026C0008007F7D52069296821F0F80141EAC000A8
:1026D00028600FE020F001002860FEF769FE064642
:1026E00005E000BFFEF764FE801B02281ED82868A4
:1026F0008007F7D42078000729D5904861696C30AD
:1027000000298146016812D041F001010160FEF705
:102710004FFE064605E000BFFEF74AFE801B02287A
:1027200004D8D9F800008007F6D510E089E021F040
:1027300001010160FEF73CFE064604E0FEF738FEAC
:10274000801B02287DD8D9F800008007F6D42078B5
:1027500040076BD5DFF8E49109F13809D9F800009A
:10276000C0000BD4D9F8001041F08051C9F8001016
:10277000D9F80000012700F08050009070480168EF
:10278000C90512D40168834641F480710160FEF7E7
:102790000FFE064605E000BFFEF70AFE801B642818
:1027A0004FD8DBF80000C005F6D5644EA068683647
:1027B00001280AD008B1052811D0306820F00100A6
:1027C0003060306820F0040002E0306840F0010022
:1027D0003060A068A0B1FEF7EBFD83460CE03068E6
:1027E00040F004003060F0E7FEF7E2FDA0EB0B01E3
:1027F00041F28830814268D830688007F4D50EE015
:10280000FEF7D6FD834607E0FEF7D2FDA0EB0B01F5
:1028100041F28830814258D830688007F4D42FB113
:10282000D9F8001021F08051C9F80010A069E0B378
:10283000DAF80010C1F3810102294DD0022828687E
:1028400000E042E020F08070286003D0FEF7B0FD89
:1028500004463DE0FEF7ACFD064604E0FEF7A8FDA9
:10286000801B022831D828688001F7D4D4E90921D7
:10287000DFF8D0C0D4E9070694F830304F0894F858
:102880002C1030430CEB074444EA8212104340EA18
:10289000016040EA0370C8F80000286840F08070CA
:1028A0002860FEF785FD044605E044E0FEF780FD64
:1028B000001B022809D828688001F7D53BE000BF3B
:1028C000FEF776FD001B022802D90320BDE8F88F31
:1028D00028688001F4D42EE00128D8F8000028D020
:1028E000E16900F480028A4223D1216A00F03F02AC
:1028F0008A421ED1626A47F6C0710140B1EB821F65
:1029000017D1A16A4FF0FF3200F4403302EB5101BE
:10291000B3EB014F0DD194F82C1000F07062B2EBC4
:10292000016F06D194F8301000F0E040B0EB017F69
:1029300001D00120CAE70020C8E7000008380240A3
:10294000007000400000FFFF2DE9F047040005D0B3
:1029500094F85D000025A56218B107E00120BDE8EC
:10296000F087204684F85C5000F050F8022284F88A
:102970005D204FF4E0632068016821F040010160B0
:10298000E068984201D9002101E04FF48051B0F590
:10299000706F02D0984200D0A5624FF00109266BFB
:1029A0002EB9984201D9226301E0C4F83090D4E9ED
:1029B0000468D4E90102278B46EA0806A36A10439B
:1029C00007F4007830432668D4E907C240EA0800DB
:1029D00040EA0C00CC460427104318433060D4F87A
:1029E0001880666B606AE26807EA1847236830431C
:1029F0003A431043084358602068C16921F40061DC
:102A0000C161256684F85DC00020A8E7F0B587B0F5
:102A1000044614216846FDF755FC19492068884290
:102A20002CD11848016841F480510160006800F41D
:102A30008050059013481438016841F0010101608D
:102A4000016801F001010591016841F00801016090
:102A5000006802240025694600F00800059003265E
:102A6000052760208DE8F1000748FEF7A9FB8020CC
:102A700069468DE8F1000548FEF7A2FB07B0F0BDFE
:102A8000003001404438024000000240000C024087
:102A90002DE9F84F044690F85C0000271D460128F8
:102AA000164689460DD04FF0010B84F85CB0FEF756
:102AB0007FFC804694F85D00BA46012804D00227C6
:102AC0009DE00220BDE8F88FB9F1000F74D0002E10
:102AD00072D0A2680321C4F83890A68784F85D10EC
:102AE000C4F860A0E687C4F840A0A4F844A0A4F805
:102AF00046A0B2F5004FC4F850A0C4F84CA004D1D1
:102B00002068016841F4804101602068016849063D
:102B100003D4016841F040010160E068B0F5E06F66
:102B2000606823D908B1012E1CD1A06B21680088F0
:102B3000C86006E020688168890709D5A16B09880B
:102B4000C160A06B801CA063E08F401EE08709E09D
:102B5000FEF72EFCA0EB0800A84202D3681C01D0AF
:102B600044E055B3E08F0028E4D134E008B1012EF1
:102B70002ED1E08F012804D9A06B21680088C8609D
:102B800014E0A16B206809780173A06B401CA0635E
:102B9000E08F401EE0871BE02068816889070DD523
:102BA000E18F0129A16BEED90988C160A06B801C5F
:102BB000A063E08F801EEDE720E017E0FEF7F8FB52
:102BC000A0EB0800A84202D3681C01D00EE06DB152
:102BD000E08F0028E0D142462946204600F0CCFD97
:102BE00008B120202066A06810B105E0032706E0A8
:102BF0002068C16880680090206E00B1012784F8C9
:102C00005DB0384684F85CA05CE72DE9F05F8B4648
:102C100090F85C1000271D460A9E01299246044642
:102C20004FF001090ED0012084F85C00FEF7C0FBD4
:102C3000804694F85D00616801280CD0B1F5827F70
:102C400007D102E00220BDE8F09FA16809B904287D
:102C500001D00227FFE0BBF1000F24D0BAF1000F32
:102C600021D005B394F85D00042802D0052084F833
:102C70005D00A4F844500020A5874FF4E062C4F83A
:102C800038B0C4F840A0E16820669142E064206555
:102C9000A4F84650E58701D8012D06D9206841687F
:102CA00021F4805105E00127D5E02068416841F416
:102CB0008051416020680168490603D4016841F0F1
:102CC00040010160E0689042606845D908B1012D7B
:102CD0003AD1A06B21680088C860A06B801CA063FB
:102CE000E08F401EE0872FE02068816889070FD5BC
:102CF000E18F69B1B9F1010F0AD1A26B4FF0000960
:102D00001188C160A06B801CA063E08F401EE0872B
:102D100020688168C9070FD0B4F8461061B1C06857
:102D20004FF00109226C1080206C801C2064B4F8E4
:102D30004600401EA4F84600FEF73AFBA0EB080050
:102D4000B04201D3701C74D1E08F0028CCD1B4F80C
:102D500046000028C8D175E008B1012D6BD1E08F85
:102D600021680128A06B07D90088C860A06B801C6F
:102D7000A063E08F801E06E000780873A06B401C03
:102D8000A063E08F401EE08755E0206881688907D6
:102D90001AD5E18FC1B1B9F1010F15D1E18F012928
:102DA000A16B07D90988C160A06B801CA063E08F6C
:102DB000801E06E009780173A06B401CA063E08FC1
:102DC000401EE0874FF0000920688168C90728D0BD
:102DD000B4F8461029B3B4F84610012914D9C068D4
:102DE000216C0880206C801C2064B4F84600801E92
:102DF000A4F84600B4F84600012810D820684168BD
:102E000041F4805141600AE0007B216C0870206C25
:102E1000401C2064B4F84600401EA4F846004FF061
:102E20000109FEF7C5FAA0EB0800B04202D3701CFE
:102E300001D018E0BEB1E08F0028A6D1B4F846005A
:102E40000028A2D142463146204600F095FC10B140
:102E5000202020660127012084F85D0000213846EB
:102E600084F85C10EFE60327F5E7401EB0F1807FA1
:102E700010B501D3012010BD4FF0E02460610F2197
:102E8000601702F054F90020A0610721216110BDF4
:102E9000FEE70000F0B500230A251C463026372740
:102EA00011E000BFB5EB107F02D906EB107C01E00A
:102EB00007EB107C01F813C001EB430C00015B1C15
:102EC0008CF80140DBB29342ECD3F0BD30B587B053
:102ED0001E4800241C4A01250594069469060494A2
:102EE00000940194029403940260C0E90141856159
:102EF0000461174A80F82040C0E90A24C561C46013
:102F000080F830504561FDF7A7FE08B1FDF717FCCA
:102F10004FF4004104AB17208A1183E807000B48E7
:102F200004A9FDF70FFC08B1FDF709FC0748694645
:102F3000CDE900450294FDF7C1FC002801D0FDF762
:102F4000FEFB07B030BD000000200140683C0020BF
:102F50000100000F7FB51448002401251149009499
:102F600001946A06029403948260C0E900148561AA
:102F7000046180F82040C561C46080F8304045613C
:102F8000FDF76AFE08B1FDF7DAFB07486946CDE9AF
:102F900000450294FDF792FC002801D0FDF7CFFB1D
:102FA0007FBD000000210140B03C00207FB51448E7
:102FB000002401251149009401946A0602940394A7
:102FC0008260C0E900148561046180F82040C56119
:102FD000C46080F830404561FDF73EFE08B1FDF762
:102FE000AEFB07486946CDE900450294FDF766FC53
:102FF000002801D0FDF7A3FB7FBD000000220140A7
:10300000F83C0020094808B5016841F480010160DE
:1030100000680022114600F4800000903820FEF77E
:1030200027FABDE808403820FEF714BA30380240CD
:103030002DE9F04F87B014216846FDF743F9634846
:10304000016841F004010160016801F0040105918B
:10305000016841F080010160016801F08001059183
:10306000016841F001010160016801F00101059171
:10307000016841F002010160016801F0020105915F
:10308000016841F020010160016801F02001059113
:10309000016841F008010160016801F00801059133
:1030A000016841F04001016000680022102100F039
:1030B000400005904648FEF775F944F2810A4548FC
:1030C00000225146FEF76EF94FF4804B4248002231
:1030D0005946FEF767F9414800224021FEF762F9A0
:1030E00000243F49DFF8FC804FF40059CDF80090F0
:1030F000CDE9011469464046FEF762F802256946AB
:10310000322002AACDE90005032640460B2782E8BB
:10311000D000FEF755F88620694602AACDE90005E1
:103120002B4882E8D000FEF74BF8102000904FF0BB
:1031300001082748CDE9018469460394FEF740F869
:10314000CDF800A06946CDE9018422480394FEF73A
:1031500037F8CDF800B06946CDE901841E480394E4
:10316000FEF72EF802AA1B48694682E8D000CDE996
:103170000095FEF725F83002009007206946CDE95A
:1031800003601948CDE90154FEF71AF84021009177
:10319000CDE90184114869460394FEF711F88020B7
:1031A0006946CDE900040D480294FEF709F84FF492
:1031B0002050694602AACDE90005084882E8D000FF
:1031C000FDF7FEFF07B0BDE8F08F00003038024089
:1031D00000000240000402400014024000180240B7
:1031E0000000111000080240000C02402DE9F041DF
:1031F00012484FF4E06500210F4F012200F1100842
:10320000C0E902155302382488E81E000725016230
:1032100041624FF48276C0E90A1501634163C0E957
:103220000076FFF791FB002803D0BDE8F041FDF7E1
:1032300086BABDE8F081000000300140A03D0020CA
:1032400010490022104810B500F0B8FE08B1FDF793
:1032500076FA0E490C4801F088F808B1FDF76FFACC
:103260000B49094800F0A1FC08B1FDF768FA0648CF
:1032700001F0F4F8002803D0BDE81040FDF75FBA74
:1032800010BD000014000020043E00207401002046
:1032900074000020F7EE001A71EEC11A61EEA00A68
:1032A00040EE010AB0EE600A704770B50C46054664
:1032B000002100F07DF814B140F0400201E020F060
:1032C00040022846BDE87040002100F075B910B5F5
:1032D0000021044600F06CF820F02C0040F00202BF
:1032E0002046BDE81040002100F066B970B50C46DC
:1032F0000546002100F05CF814B140F0800201E0C6
:1033000020F080022846BDE87040002100F054B94A
:103310002DE9F04104460127DDE90656816010469B
:103320002260194627733A46A380FEF73BF82946E8
:10333000204600F02EF900212046FFF7D7FF00219C
:103340002046FFF7B2FF2046FFF7C1FF3146204677
:10335000BDE8F04100F00AB9072100F029B810B526
:103360000446FFF7B4FF01212046FFF7BFFF00210D
:10337000204600F01DF840F020022046002100F019
:103380001BF90121204600F002F8400810BD08B5E5
:103390000022022300926A4600F015F89DF8001002
:1033A0004FF6FF729DF8010002EA0121084308BDB3
:1033B00008B5002201238DF800206A4600F003F8CA
:1033C0009DF8000008BDFFB583B00446FF201D46F0
:1033D00016468DF8040000229DF8100000F07F00D2
:1033E0008DF81000A1882068FDF7DCFFA068642339
:1033F000012204A9FFF74CFB642707E00097012393
:10340000A06801A93246FFF700FC761C681EC5B211
:10341000F4D2A18801222068FDF7C4FF07B0F0BDF7
:103420002DE9F04105460E4601202DED048B0024C8
:1034300028732846FFF793FF01EE100A9FED372A05
:10344000DFED371AB8EE411A9FED360ADFED360A86
:103450009FED369A21EE021ADFED358A21EE218AA0
:1034600000EE880A01F074FE70EE090A002780EE73
:10347000A80AB5EEC00AF1EE10FA41DA9FED2D7AF6
:10348000DFED2D0A9FED2D5B88EE070A9FED2D6B7A
:103490009FED2E4B9FED2F1B9FED302B9FED313B72
:1034A00020EE200AB7EEC07A60EE000A07EE065B57
:1034B000B7EEE06A60EE800AB7EEC55BB7EEC55ABC
:1034C00006EE045BB7EEC54BB7EEE05A60EE800A3D
:1034D000B7EEC44A20EE800A05EE414BB7EEC41B9E
:1034E000B7EEE04AB7EEC11A04EE421BF7EEC10B8D
:1034F000B7EEC01AB7EEE00A01EE030BB7EEC00B51
:10350000284686ED000AFFF727FF00B901242F7334
:103510002046BDEC048BBDE8F081000000000038BF
:103520000060864517839337F3BD1EB1321180BB0F
:103530007F059BB500007A440000C842000000E00F
:10354000A3406EC0F163CC5D4BC80140BB82C87D17
:10355000062F653F93C266C7E03DD43ECE5631513B
:10356000E2425E3E3EFAE46127F3E43D70B50C466C
:1035700005460021FFF71CFF322C07D020F0010286
:103580002846BDE87040002100F016B840F0010266
:10359000F6E770B50C4605460021FFF709FF032C3E
:1035A00007D020F010022846BDE87040002100F04E
:1035B00003B840F01002F6E737B5818800220446D0
:1035C0000068FDF7EFFE9DF804006423012240F03F
:1035D00080008DF80400A06801A9FFF759FAA068DF
:1035E0006423012202A9FFF753FAA188012220686F
:1035F000FDF7D8FE3EBDFEE7704700000148FEF72C
:10360000FBB80000D44000202DE9F04104460069D9
:103610000D462027236801284FF4004604F57172F7
:1036200003EB4511D3F840C0D1F8080B09D0DFF8FF
:103630009CE0F4453AD1020433D500BFC1F8086BD1
:1036400040E0234B5FEA007E04D59C453AD9000454
:10365000F4D437E05FEA806E02D5C1F8087B31E030
:1036600010F0280F2ED19C4501D90004E6D4D1F8E2
:10367000103BC5EBC50004EB8000C3F31203D0F888
:103680000412A1EB0303C0F81432D0F80832194435
:10369000C0F8081295B9D4F8100278B92068012151
:1036A0000AE080060AD5C1F8087B07E035B9D4F8EE
:1036B000100218B90021184601F09EFA2046E9B21E
:1036C000FDF780FF0020BDE8F08100000A31544F73
:1036D0000A30544F2DE9F84F0E4605688146C1EB7C
:1036E000C60100EB8104D4E914203C34904202D995
:1036F0000120BDE8F88FA168101A814200D2084667
:10370000C01C05EB461887081BE000BFA268A0EBB1
:10371000010A524500D2924699F810100AF10300AE
:1037200000911FFA8AF3E16887082846F2B201F097
:10373000EBFCE16801EB0A00E060A16901EB0A0023
:10374000A061D8F8180980B2B84205D3D4E90501C0
:10375000814201D20028D9D1D4E90501884208D894
:10376000D5F83418012006F00F0290408143C5F8C7
:1037700034180020BDE77047F8B515460E460446DC
:103780000B464FF4C0510092002200F019F888B99E
:103790000022334680212046009500F05CF848B9AD
:1037A000002233464FF4C0612046009500F008F82F
:1037B000002804D0206E40F0200020660320F8BDD1
:1037C0002DE9F0474FF4C0681D4617460E46DDF858
:1037D000209004460CE0464501D107B9007B681CE7
:1037E00006D0FDF7E5FDA0EB0900A84208D23DB1E7
:1037F000206881683140B942EDD10020BDE8F087F2
:103800002068416821F0E00141606068B0F5827F86
:103810000BD1A068B0F5004F02D0B0F5806F04D195
:103820002068016821F040010160A06AB0F5005FE6
:1038300009D12068016821F4005101602068016805
:1038400041F400510160012184F85D10002084F8EA
:103850005C000320D2E72DE9F0411D4617460E46D5
:103860000446DDF8188008E0681C06D0FDF7A0FDCE
:10387000A0EB0800A8420BD255B12068806836EA58
:10388000000030D00020B842EED10020BDE8F08129
:103890002068416821F0E00141606068B0F5827FF6
:1038A0000BD1A068B0F5004F02D0B0F5806F04D105
:1038B0002068016821F040010160A06AB0F5005F56
:1038C00009D12068016821F4005101602068016875
:1038D00041F400510160012184F85D10002084F85A
:1038E0005C000320D2E70120CDE7704701784078E3
:1038F00041EA00207047FDF761BD000070B5B8B027
:10390000342124A8FCF7DEFC142131A8FCF7DAFCF2
:1039100090216846FCF7D6FC1E48016841F08051B2
:103920000160006800F0805036901B48016821F467
:10393000404141F480410160006802240DF1B00C67
:1039400000F440403690600504219022CDE92A40E1
:1039500006232F934FF4A0268CE816000125CDE90D
:10396000245624A8FEF724FEE102B01131ABCDE9C4
:1039700034010F22002583E83400042131A8FEF72A
:1039800049FD20051F9500906846FEF7A5FA38B05E
:1039900070BD0000403802400070004005484FF004
:1039A00000610368034A43F470030360803A1160C6
:1039B0007047000088ED00E02DE9F041D0F8C42206
:1039C0000C46D0F8BC12F1B104EB8403002600EBE6
:1039D0008305AB694BB1C4EBC40702EB8702526CA1
:1039E000B3FBF2F702FB17327AB1C1F81462224638
:1039F000D0F8C0020369D1F8080201F504719847B4
:103A00000020BDE8F0810320FBE7002321461A4691
:103A1000AE6100F08CFCF3E770B5D0F8BC4205460F
:103A20006CB100F092FBC4F80C0204F50371D5F8F8
:103A3000C002C268D4F804029047002070BD032081
:103A400070BD70B500260446812100F0DAFA002529
:103A500020460121258700F0D4FA82212046A4F8CF
:103A6000785100F0CEFAD4F8BC02A4F84C50A4F877
:103A70004E5048B1D4F8C00204F52F744068804716
:103A8000206801F0DDFB2560304670BD10B5D0E93F
:103A9000AF4159B194F80002FF2807D08B68214646
:103AA00094F801229847FF2084F80002002010BDFE
:103AB0000A210180004870479C00002043210180BA
:103AC00000487047EC000020432101800048704707
:103AD000A8000020432101800048704730010020E9
:103AE0002DE9F04704464FF4077001F0FDFB050097
:103AF0004FF0000735D0207C01264FF400794FF0BD
:103B00001008C4F8BC5280B3402320460222812111
:103B100000F064FB4023268702222046012100F0AA
:103B20005DFBA4F878610823032220468221A4F8D3
:103B30004E8000F053FBA4F84C60D4F8C00200683B
:103B40008047C5F81472C5F81872207CD5F8042295
:103B5000A8B140232046012100F04CFB0020BDE825
:103B6000F0870220C4F8BC72F9E7FFE702224B4657
:103B70008121204600F032FB4B462687CCE74B469E
:103B8000E8E710B5D0F8BC1251B1027C002AD1F898
:103B9000042207D04023012100F02CFB002010BD9F
:103BA000032010BD4FF40073F5E719B1C0F8C0123F
:103BB0000020704703207047D0F8BC02C0F8041200
:103BC00000207047D0F8BC02C0F81022C0F80812DC
:103BD000002070472DE9FC4105460C4600200646B2
:103BE000D5F8BC728DF80000ADF80400087810F02C
:103BF000600122D020293ED1E288B2B1000608D56A
:103C0000D5F8C0023946836860789847E28839461B
:103C100029E06078394687F80002A07987F8010228
:103C20002846E28800F06DF82AE0D5F8C0020022AC
:103C3000214683686078984722E0607830B1012897
:103C40001ED00A2809D00B2815D110E095F89C0247
:103C5000032810D1022201A905E095F89C0203284F
:103C600009D101226946284600F065F808E095F878
:103C70009C02032804D02146284600F037F803268A
:103C80003046BDE8FC8110B5D0F8BC12012219B154
:103C9000D1F8143213B10FE0032010BD0122C1F896
:103CA0001422D1F81022C262D1F81032D1F80822C1
:103CB000812100F03CFB0022104610BD10B5D0F869
:103CC000B8220AB152689047002010BD13460A4638
:103CD000002110B500F08EFA002010BD13460A46F0
:103CE000002110B500F023FB002010BD10B580218D
:103CF000044600F001FB2046BDE81040002100F022
:103D0000FBBA10B5C0F858210323C0F8943213460B
:103D1000C0F85C210A46002100F06CFA002010BDBA
:103D20000521002310B51A46C0F89412194600F078
:103D300061FA002010BD10B582610223C0F89432F0
:103D40001346C2610A46002100F0F1FA002010BDBE
:103D50000421002310B51A46C0F89412194600F049
:103D6000E6FA002010BD000004A00A46024910B582
:103D700000F0F3F8004810BDD8440020434443202D
:103D8000436F6E6669670000122008800048704724
:103D90003800002004A00A46024910B500F0DDF802
:103DA000004810BDD844002043444320496E746548
:103DB0007266616365000000042008800048704757
:103DC0003400002004A00A46024910B500F0C5F8EE
:103DD000004810BDD844002053544D6963726F658C
:103DE0006C656374726F6E696373000004A00A46A9
:103DF000024910B500F0B1F8004810BDD8440020C9
:103E000053544D3332205669727475616C20436F80
:103E10006D506F727400000010B51A2008800B48B6
:103E20000A490830021F096800681468081809D098
:103E300007490822FFF72EF80549042220461031D1
:103E4000FFF728F80248801E10BD000020F4F01F84
:103E50005A0000200C200880004870474C000020C9
:103E6000F8B504460D460020ADF800004888010A68
:103E7000062947D006DC01290FD0022912D00329D8
:103E800062D11DE0072946D00F295DD1D4F8B402D4
:103E9000C26920E0694690473BE0D4F8B412207C28
:103EA0000A68F7E7207C02260028D4F8B80205D07B
:103EB000C16A684688470146467036E0816AF8E77D
:103EC000C0B2062840D2DFE800F003090D11151931
:103ED000D4F8B4024268B2B3207CDBE7D4F8B40271
:103EE0008268F8E7D4F8B402C268F4E7D4F8B40200
:103EF0000269F0E7D4F8B4024269ECE7D4F8B402FE
:103F00008269E8E7207CF0B9D4F8B802416B6846D2
:103F10008847014609E0207CA8B9D4F8B802016BB3
:103F200068468847014607204870EA888AB1BDF88C
:103F3000000040B1824200D902462046ADF8002080
:103F4000FFF7F9FEF8BDFFE729462046FFF7CEFE52
:103F5000F8E72046FFF7FCFEF4E770B500284FF0C5
:103F600000051ED004462E4602E0761C641CF6B204
:103F70002378002BF9D1022404EB46041480127834
:103F80006B1C03264A550024AA1CCE5406E0551C7F
:103F90008B54EAB2531C401C8C54DAB20378002BC9
:103FA000F5D170BD01004FF0000004D0012901D00F
:103FB000022901D0032070470120704730B4A0B11E
:103FC000D0F8B84200230CB1C0F8B832D0F8CC42D7
:103FD0000CB1C0F8CC3209B1C0F8B41201210270A2
:103FE00080F89C1230BC00F0B5B830BC032070479C
:103FF00010B5D0F8C402FDF719FBBDE81040FFF77B
:10400000D1BF10B5D0F8C402FDF7EAFABDE8104000
:10401000FFF7C8BF70B51646044649B1D4F8B802D8
:1040200042691AB194F89C02032842D0032070BD63
:10403000D4F89412002504F11400022932D1D0E9F9
:104040000232934206D99A1A314682602046FFF71F
:1040500045FE0FE09A4214D14068904211D3D4F843
:10406000981288420DD2002220461146FFF736FEF4
:10407000C4F8985200231A461946204600F0BAF8B0
:1040800010E0D4F8B802C16829B194F89C02032862
:1040900001D1204688478021204600F02DF9204696
:1040A000FFF73EFE94F8A002012806D184F8A05242
:1040B00003E0204690470028B9D1002070BD10B51C
:1040C0001346044649B1D4F8B80282691AB194F88B
:1040D0009C02032824D0032010BDD4F8941204F5C8
:1040E000AA70032920D1D0E9021291420AD98A1A72
:1040F0008260C068824200D3024619462046FFF71C
:10410000E5FD11E0D4F8B802016929B194F89C02E8
:10411000032801D1204688472046FFF719FE03E017
:10412000204690470028D7D1002010BD00207047BE
:1041300010B5D0F8B812012280F89C2219B1037989
:104140004A68D9B29047002010BDD0F8C402FDF7EC
:104150009BBA000070B5017839BB154900220223D3
:1041600006254FF0A044C1F80004C0F8C412084668
:10417000C1E90332C1E906320A624A62CA620A63CD
:10418000C1E90045FDF77AFD08B1FCF7D8FA084807
:104190008021FDF7E3F9064840220021FDF7E2F90E
:1041A000034880220121FDF7DDF9002070BD0000E9
:1041B000D4400020D0F8C42201F07F000B06C0EBF1
:1041C000C00002EB800002D590F83E00704790F8E6
:1041D000FE017047002070470020704710B51C4654
:1041E000D0F8C40213462246FDF757FABDE8104046
:1041F000FFF7D8BE10B5D0F8C402FDF77EFABDE8CF
:104200001040FFF7CFBE70B5044601250020D4F85A
:10421000BC1284F89C52C4F894026060C4F8A402F2
:1042200029B1D4F8B8020021426820469047002204
:10423000204640231146FFF7D1FF4026A4F86451E1
:104240000022334680212046C4F86061FFF7C6FF94
:10425000A5840020266270BD90F89C12042903D129
:1042600090F89D1280F89C120020704710B590F8CD
:104270009C12032904D1D0F8B812C96901B188474A
:10428000002010BD01740020704710B5D0F8C402A2
:10429000FDF7DAFDBDE81040FFF784BE70B50446B7
:1042A00000F2AA20054600F04BF8B4F8B032012124
:1042B00094F8AA0210F01F02C4E9A5130AD0012A3B
:1042C0000ED0022A12D000F080012046BDE87040D6
:1042D00000F012B829462046BDE8704000F0C0B892
:1042E00029462046BDE8704000F0EBB9294620463B
:1042F000BDE8704000F03FB910B5D0F8C402FDF73A
:104300001EFABDE81040FFF74DBE10B5D0F8C4024C
:10431000FDF7B5FDBDE81040FFF744BE90F89C22C4
:10432000042180F89D2280F89C120020704710B56F
:10433000D0F8C402FDF73DFABDE81040FFF732BEE9
:1043400070B5054608788C1C28704878687020463F
:10435000FFF7CCFAA41C68802046FFF7C7FAA880B4
:10436000A01CFFF7C3FAE88070BD38B504460020F2
:10437000ADF8000041B1C4F8B8126846896A8847B0
:10438000C4F8CC02002038BD032038BDD0F8B832C4
:1043900002460320002B02D01B68104618477047C6
:1043A0002DE9F0412C4E0446887800250F46C1B215
:1043B0000129317006D939462046FFF797FC0320C2
:1043C000BDE8F08194F89C0202280CD003281DD08F
:1043D00039462046FFF78AFC31782046FFF76EFC0D
:1043E00003252846ECE799B320466160FFF7CEFF2E
:1043F000050004D039462046FFF778FCF1E7204657
:10440000FFF7A6FC032084F89C02EAE74FF00208BD
:10441000C1B1606888421BD0C1B22046FFF74EFC94
:10442000317820466160FFF7B1FF050010D03946B2
:104430002046FFF75BFC21792046FFF73FFC84F81C
:104440009C82CEE76160204684F89C82FFF736FCB0
:104450002046FFF77DFCC4E798000020FFF755BF1A
:104460002DE9F0410A784FF0000512F0600208D003
:10447000202A01D0402A71D1D0F8B8229268904702
:1044800031E04B78002201260A2B67D2DFE803F0E7
:10449000415E6658660805662D29FFF7E1FC5FE07E
:1044A00004468888D8B9C888C8B94888802816D2F0
:1044B00094F89C2200F07F07032A10D0394620464A
:1044C00084F89E72FFF7E1FE2046FFF741FC1FB122
:1044D000022084F89C0243E084F89C6240E020467D
:1044E0003CE0FFF75DFF05463AE0CB88012B35D174
:1044F00090F89C32012B04D0022B02D0032B2DD13B
:1045000004E000F108018260012216E00122011D91
:1045100013E090F89C22012A03D0022A01D0032A3A
:104520001CD1CA88022A19D1D0F8A412C66009B1D8
:104530000321C160022200F10C01FFF7FCFB0FE038
:10454000498801290CD1C0F8A46211E090F89C328E
:10455000012B08D0022B06D0032B04D0FFF7C6FB9B
:104560002846BDE8F08149880129F9D1C0F8A42284
:10457000FFF7EEFBF4E72DE9F04104460878002749
:104580000D46097910F060000BD0202801D040289A
:1045900073D1D4F8B802294682682046904707466E
:1045A0008CE06878D8B3012822D0032865D194F82C
:1045B0009C02022802D003287CD10BE0002979D08C
:1045C000802977D02046FFF797FE80212046FFF70D
:1045D00093FE73E0688838B931B1802904D0E88847
:1045E00010B92046FFF788FE2046FFF7B1FB65E0D3
:1045F00094F89C020228E1D003285BD16888D8BBDC
:10460000480602D02046FFF7F3FC2046FFF7A0FB48
:10461000D4F8B80229468268204690474EE0FFE76A
:1046200094F89C020026022802D0032842D111E00F
:1046300009B180293ED1080601F07F0000EB80001F
:1046400004EB800101D5143101E001F5AA710222C9
:104650000E602BE0080601F00F0000EB800004EB79
:1046600080000BD5808C40B101F07F0000EB800012
:1046700004EB800514350CE020E01BE0B0F8640189
:10468000C0B101F07F0000EB800004EB800505F570
:10469000AA7541B1802906D02046FFF78BFD10B1E5
:1046A0000120286000E02E60022229462046FFF704
:1046B00042FB03E029462046FFF718FB3846BDE8D9
:1046C000F08170B5064608780D464FF0000410F0F2
:1046D000600003D0202801D0402817D196F89C0212
:1046E000012803D0022801D003280FD128790128FE
:1046F0000CD8D6F8B8028268304690470446E8885D
:10470000204306D13046FFF723FB02E03046FFF797
:10471000EDFA204670BD000070B54D7801230A788F
:10472000012D1C4C02F00F0503FA05F3D0F81C58BC
:1047300017D000EB421245EA0343C0F81C38D2F808
:10474000000B00040BD40B89C978D2F8000BC3F31B
:104750000A03184344EA81410843C2F8000B0020D1
:1047600070BD9EB23543C0F81C5800EB4213D3F81D
:1047700000090004F3D40D89C978D3F80009C5F302
:104780000A058904284341EA825108432043C3F8BB
:104790000009E4E700800010D0F800196FF30A0167
:1047A000C0F80019D0F8041841F48071C0F804185A
:1047B0000020704770B504460698049D0D990128A5
:1047C00015D0E06840F04000E060204600F028F896
:1047D000A16B41F48031A163012D07D1A16841F0A3
:1047E0000601A160A16841F02001A16070BDA06B2D
:1047F00001290A4A20F48030A063E06800EA020040
:10480000E060E06820F44010E06003D1E06840F42C
:104810008010E060204600F003F8DDE7BFFFBDFF39
:104820000C49012202E0521C8A420BD80369002B7A
:10483000F9DA0369012243F00103036104E0521C29
:104840008A4201D9032070470369DB07F7D10020B2
:1048500070470000400D030070B50A7801234C78C2
:10486000012C00EB42122CD0D2F8004B002C0BDABA
:10487000D2F8004B44F00064C2F8004BD2F8004B71
:1048800044F08044C2F8004B0C78D0F83C5804F057
:104890000F0403FA04F425EA0444C0F83C480978FC
:1048A000D0F81C4801F00F018B401C4924EA034357
:1048B000C0F81C38D2F8000B0840C2F8000B0020EA
:1048C00070BDD2F80049002C0BDAD2F8004944F050
:1048D0000064C2F80049D2F8004944F08044C2F8AC
:1048E00000490D78D0F83C4805F00F050C4E03FA4E
:1048F00005F5ADB2AC43C0F83C48D0F81C48097887
:1049000001F00F018B4099B28C43C0F81C48D2F8DB
:1049100000093040C2F80009D1E700000078F3EF49
:10492000007833EC10B5D0F8041821F00201C0F87B
:1049300004180320FCF732FC002010BD10B5D0F89D
:10494000041841F00201C0F804180320FCF726FC0B
:10495000002010BD2DE9F04F0E4604460021DDF881
:1049600024B00D46109F0846DDF82C2004EB800C87
:10497000CCF80411401C0F28F8D32046B7B1806B47
:1049800040F4001CC4F838C088460846C4F8000E3D
:104990002046D4F80018012AC4F8001839D0032A98
:1049A00037D0D0F8001841F0030117E0D0F8040820
:1049B00040F0020CC4F804C8A06B20F4001CC4F83A
:1049C00038C0206840F0400CC4F800C0206840F0B7
:1049D000800CC4F800C0D7E741F00101C0F800180E
:1049E000102100F097FA00B10125204600F082FA6C
:1049F00000B1012540464FF000694FF67F334FF07C
:104A0000904AC4F81088C4F81488C4F81C8800219F
:104A100019E0D0F80018002BE0D0DDE704EB4112DC
:104A2000D2F800C9BCF1000F06DA11B1C2F800A932
:104A300004E0C4F8009901E0C2F80009C2F81009C6
:104A4000C2F80839491C8E42E8D8002115E000BFA1
:104A500004EB4112D2F800CBBCF1000F06DA11B121
:104A6000C2F800AB04E0C4F8009B01E0C2F8000B00
:104A7000C2F8100BC2F8083B491C8E42E8D8D4F8A3
:104A80001038BBF1000F6FF0804223F48073C4F83C
:104A90001038A061626103D1A06940F01000A061EC
:104AA000A069094A0C9940EA0200A06119B1A06905
:104AB00040F00800A061012F03D1A0690349084319
:104AC000A0612846BDE8F08F00383C80040000401B
:104AD000816821F0010181600020704770B50B787A
:104AE0004E78444C0D78012E00EB431320D0D3F8C0
:104AF000100B6FF31200C3F8100BD3F8100B20400B
:104B0000C3F8100B486908B188684861D3F8100BE6
:104B1000012A40F40020C3F8100BD3F8100B8A6868
:104B2000C2F3120240EA0200C3F8100B56D059E05B
:104B30004E69002ED3F8106933D06FF31206C3F814
:104B40001069D3F810692640C3F810694E698C6863
:104B5000A64200D94C61D3F8104944F40024C3F8AC
:104B60001049D3F810494E69C6F3120654EA0604F8
:104B7000C3F81049012A22D000EB4512D2F80039BF
:104B800043F00443C2F800394A6932B30B78D0F8D5
:104B90003418012203F00F039A401143C0F834186F
:104BA00026E02640C3F81069D3F8104944F40024E5
:104BB000C3F81049D3F810496FF31204D8E7096914
:104BC00019B100EB4512C2F8141900EB4510D0F8EA
:104BD000001941F00441C0F8001909E0C86808B1A3
:104BE000C3F8140BD3F8000B40F00440C3F8000BDB
:104BF000002070BDFFFF07E010B5144C036CA3420A
:104C000003D9D0F8003B002B1EDB0023C0F8103B7B
:104C10000129D0F8101B41F40021C0F8101BD0F876
:104C2000101B41F01801C0F8101BD0F8101B41F008
:104C3000C041C0F8101B07D1C0F8142BD0F8001BDE
:104C400041F08021C0F8001B002010BD0A30544FF5
:104C50000B784A78012A00EB43100BD0D0F8002BD8
:104C600022F40012C0F8002BC978032914D00229BD
:104C700012D017E0D0F8002922F40012C0F8002961
:104C8000C978032901D002290CD1D0F8001941F0CC
:104C90008051C0F8001905E0D0F8001B41F08051A8
:104CA000C0F8001B002070470A784B78D1B2012B66
:104CB00000EB421012D0D0F8002B002A06DB29B1FD
:104CC000D0F8001B21F08041C0F8001BD0F8001B79
:104CD00041F40011C0F8001B00207047D0F80029F3
:104CE000002A06DB29B1D0F8001921F08041C0F874
:104CF0000019D0F8001941F40011C0F80019EBE7D1
:104D0000F8B50B786FF060464F78764DDCB2012F26
:104D100000EB431326D0D3F8104B6FF31204C3F803
:104D2000104BD3F8104B2C40C3F8104B4C698D68D6
:104D3000002C74D0D3F8107B2C44641EB4FBF5F423
:104D4000A4B206EAC4452F43C3F8107BD3F8105B26
:104D50008E686643C6F312042543C3F8105B012A2C
:104D600072D0A6E04F6927B3D3F810796FF312071A
:104D7000C3F81079D3F810792F40C3F810794F6930
:104D80008D68D3F810C92F447F1EB7FBF5F506EAEE
:104D9000C54545EA0C05C3F81059D3F810594E69BA
:104DA000C6F312063543C3F81059CD78012D10D043
:104DB0001BE0D3F810692E40C3F81069D3F81059DE
:104DC00045F40025C3F81059D3F810596FF31205B4
:104DD00009E0D3F8105925F0C045C3F81059D3F8AD
:104DE000105945F00055C3F81059012A18D000EBAE
:104DF0004413D3F8004944F00444C3F80049CC7884
:104E0000012C2FD04A6962B30B78D0F834180122F4
:104E100003F00F039A401143C0F834185FE036E006
:104E20000A691AB100EB4413C3F81429C97801299F
:104E30000FD1D0F80818C90500EB4411D1F80029AA
:104E400003D442F0005202E02FE042F08052C1F859
:104E5000002900EB4410D0F8001941F00441C0F8DB
:104E600000193CE0D0F80848E405D3F8004902D422
:104E700044F0005401E044F08054C3F8004900922B
:104E80008B8A0A78C9689BB200F03EF927E0D3F814
:104E9000104BC5F312052C43C3F8104BD3F8104B3D
:104EA00044F40024C3F8104B59E7CA680AB1C3F8A8
:104EB000142BC97801290CD1D0F80808C005D3F803
:104EC000000B02D440F0005001E040F08050C3F8E5
:104ED000000BD3F8000B40F00440C3F8000B002097
:104EE000F8BD0000FFFF07E0816841F0010181602B
:104EF00000207047064A102101610021491C91429F
:104F000001D9032070470369DB06F7D400207047FE
:104F1000400D03002023074A43EA81130361002167
:104F2000491C914201D90320704703699B06F7D4BD
:104F300000207047400D0300D0F8080810F006006C
:104F400004D0022803D0062801D00F207047022089
:104F50007047406900F001007047D0F81818D0F889
:104F60001C08084080B27047D0F81818D0F81C0808
:104F70000840000C704710B5D0F8102801F00F035E
:104F800000EB4114D0F83418D4F80809D94001F0E6
:104F9000010142EAC111084010BD00EB4111D1F8F6
:104FA000081BD0F814080840704741698069084020
:104FB0007047D21C00F580509308002210B502E023
:104FC0000468521C10C19A42FAD3084610BD10B5AD
:104FD000C268012922F0C042C26002D029B101207A
:104FE00010BDC16841F0005102E0C16841F080414C
:104FF000C1603220FCF7D2F8002010BDD0F80028A4
:105000004FF4FE6303EA011322F4FE62C0F80028A5
:10501000D0F800181943C0F80018002070470000AD
:10502000022A3ED1264A274B0A449A4201D20F2136
:1050300038E0254A254B0A449A4201D20E2131E03C
:10504000234A244B0A449A4201D20D212AE0224AE3
:10505000224B0A449A4201D20C2123E0204B214AE0
:105060000B44934201D20B211CE01F4B1F4A0B44FF
:10507000934201D20A2115E01D4B1E4A0B44934274
:105080000FD31D4B1D4A0B44934201D2082109E066
:105090001B4B1C4A1944914201D2072102E0062110
:1050A00000E00921C2684FF4705322F47052C260CC
:1050B00003EA8123C1681943C160002070470000E2
:1050C000405327FF00350C00401E1BFF40420F00DD
:1050D00000DC0BFF804F1200808CF9FE20D61300FD
:1050E00060B6E5FE60E3160000D3CEFE40771B00FD
:1050F000C05BB3FEC091210000CA91FE207538004C
:10510000E05459FEE09C410010B5029C64B900EBEC
:105110000230DB1C00229B0800F5805002E010C921
:105120000460521C9A42FAD3002010BDFEE7090722
:1051300000284FEA116104DB00F1E02080F8001440
:10514000704700F00F0000F1E02080F8141D704758
:1051500010B52DED028BB1EEC08A18EE100A20F0CA
:105160000040C0F1FF40C00F0AD010EE100A20F03E
:105170000040C0F1FF40C00F04BF012000F014F850
:10518000B0EE480ABDEC028B10BD02E008C8121F49
:1051900008C1002AFAD170477047002001E001C120
:1051A000121F002AFBD170470149086070470000B8
:1051B000B401002030B5002307E0C45CCD5CAC42F4
:1051C00001D0002030BD5B1C9BB29342F5D301207F
:1051D00030BD00001FB50020012100900290039017
:1051E000064801916946FBF769FB05486946FBF7EC
:1051F00065FB04486946FBF761FB1FBD683C002066
:10520000B03C0020F83C00201FB501220020032103
:105210000290CDE90012039069460648FBF74EFB69
:1052200005486946FBF74AFB04486946FBF746FB1D
:105230001FBD0000683C0020B03C0020F83C00206E
:1052400010B5002821D0114B0022001F196803E07F
:10525000814203D80A4649680029F9D152B113683E
:10526000841A9C4204D1006818441060104602E081
:10527000506000E0186039B102680B1A934203D104
:105280000B681A4402604968416010BDAC010020FF
:105290001CB5FCF79BF8FEF731FBFDF7C9FEFDF7E7
:1052A000B1FEFDF713FEFDF755FEFDF77FFEFDF79E
:1052B0009DFFFDF7C5FF084800224FF48041FCF731
:1052C00071F83221054A02201023CDE9000104497A
:1052D0000448FEF71DF8FEE70014024000000240FB
:1052E000A03D0020583C0020F0B50B30154D20F0BB
:1052F00007010024144A0FE003688B420BD38B4252
:1053000005D95E1A43184768C3E9006700E043689F
:10531000136002C004E0021D10680028ECD1204692
:10532000002802D1286808B10020F0BD064A0748CD
:105330001060074A121A22F00702C0E90024012077
:105340002860D7E7B0010020AC010020DC56002027
:10535000D8F6002000061016000610160000000007
:105360000000000001020304060708098C5300082E
:1053700000000020B80100003C030008645400084D
:10538000B8010020209501009A51000851B57365BD
:105390006E6413893D1B08B9041AC5041AED041381
:1053A000193E1B0869081A95041A550C100B0403C2
:1053B000090412010102020216408304405726022A
:1053C0000102030114050F0C1C0107101721031A19
:1053D0001A031B6D055019041A6504132D061B08CA
:1053E0005104193F1182105324F4130A06294B2A41
:1053F000401C1C090243671125C0320904197B12A5
:1054000001130524161001052401180901042402C2
:10541000020524067C1505820308151009040133D2
:10542000020A1D07050102432C07058107093844BC
:105430002A40072A8107112B0907440A3B04441319
:10544000E13A1B08430413D53B42081A8D0C13B9EB
:10545000391B081908C11AC9102ABD281904DAB164
:045460001C0000002C
:04000005080001F9F5
:00000001FF
